:0101D800FF27
:0101D9000025
:0201D400FFCE5C
:0201D600FFCE5A
:02000200AC0050
:1000000000F0AC002C003400340034003400340024
:100010003400340034003400340034003400340040
:0C0020003400340034003400340034009C
:04002C0000F0D4010B
:1000300003E9FFFF0FFECEF805F291A00AF033C8E6
:10004000F7EB01E0139024F000E0139022F01392FC
:1000500020F00100119025F00000119014F0119093
:1000600015F05002A003119208F0119308F002005D
:10007000119009F08FFE8FFE109042F013C80FE030
:10008000139024F000E0139022F09E0007011390DB
:1000900020F00100119025F00000119014F0119053
:1000A00015F008ED8EF292A00AF0CACE0000119071
:1000B00000F000F0B600109058F0008401F0FC0051
:1000C0004000060101F03600810011900AF00400A2
:1000D000119030F00300119033F00600119034F0CD
:1000E0001700119035F00800119036F000001190C3
:1000F00039F05500119031F001F0D001CEF8310007
:1001000011900AF0F700119028F03200FF100070F3
:10011000FDC82200119010F00000119011F0119014
:1001200012F00300119018F00000119058F0000038
:10013000119042F0070011903DF0C800000101F05D
:1001400036000400119030F00700119033F00600E3
:10015000119034F01700119035F00800119036F02E
:100160000000119039F05700119031F012001190F9
:1001700032F00000119020F27F00119021F2000077
:10018000119022F27F00119023F20000119024F2CE
:10019000119025F20000119048F0119049F00700ED
:1001A00011904AF0000011904BF0070011904CF0B4
:1001B000000011904EF00000119041F0800011906D
:1001C00044F0FF00119045F00002119246F08EF2CB
:0401D00000F0D60164
:00000001FF
